{
  "contractName": "Flow",
  "abi": [
    {
      "constant": true,
      "inputs": [],
      "name": "reversible",
      "outputs": [
        {
          "name": "",
          "type": "bool"
        }
      ],
      "payable": false,
      "stateMutability": "view",
      "type": "function"
    },
    {
      "constant": true,
      "inputs": [],
      "name": "mode",
      "outputs": [
        {
          "name": "",
          "type": "uint8"
        }
      ],
      "payable": false,
      "stateMutability": "view",
      "type": "function"
    },
    {
      "inputs": [
        {
          "name": "_mode",
          "type": "uint8"
        },
        {
          "name": "_reversible",
          "type": "bool"
        },
        {
          "name": "_owner",
          "type": "address"
        }
      ],
      "payable": false,
      "stateMutability": "nonpayable",
      "type": "constructor"
    }
  ],
  "bytecode": "0x6060604052341561000f57600080fd5b6040516060806101c783398101604052808051906020019091908051906020019091908051906020019091905050826000806101000a81548160ff0219169083600381111561005a57fe5b021790555081600060016101000a81548160ff02191690831515021790555080600060026101000a81548173ffffffffffffffffffffffffffffffffffffffff021916908373ffffffffffffffffffffffffffffffffffffffff16021790555050505060fc806100cb6000396000f3006060604052600436106049576000357c0100000000000000000000000000000000000000000000000000000000900463ffffffff1680630e75675814604e578063295a5212146078575b600080fd5b3415605857600080fd5b605e60ab565b604051808215151515815260200191505060405180910390f35b3415608257600080fd5b608860be565b60405180826003811115609757fe5b60ff16815260200191505060405180910390f35b600060019054906101000a900460ff1681565b6000809054906101000a900460ff16815600a165627a7a72305820f44979c28b75e02250e5697f901b038cdef55a0fe5eaa747d39d9901810ab3a00029",
  "source": "pragma solidity ^0.4.17;\n\n/**\n * The flow contract returns fares between a specific origin and destination\n */\ncontract Flow {\n  \n  enum TransportMode {\n    Train,\n    Bus,\n    Ferry,\n    Plane\n  }\n  \n  TransportMode public mode;\n  bool public reversible;\n  address private owner;\n\n  function Flow(TransportMode _mode, bool _reversible, address _owner) public {\n    mode = _mode;\n    reversible = _reversible;\n    owner = _owner;\n  }\n  \n}\n",
  "sourcePath": "/home/linus/Work/planarnetwork/ethereum-demo/contracts/Flow.sol",
  "compiler": {
    "name": "solc",
    "version": "0.4.18+commit.9cf6e910.Emscripten.clang"
  },
  "schemaVersion": "1.0.1",
  "updatedAt": "2018-01-23T15:29:58.418Z"
}