{
  "contractName": "Genesis",
  "abi": [
    {
      "constant": false,
      "inputs": [
        {
          "name": "stationName",
          "type": "string"
        }
      ],
      "name": "addStation",
      "outputs": [
        {
          "name": "",
          "type": "uint256"
        }
      ],
      "payable": false,
      "stateMutability": "nonpayable",
      "type": "function"
    },
    {
      "constant": true,
      "inputs": [
        {
          "name": "",
          "type": "uint256"
        }
      ],
      "name": "stations",
      "outputs": [
        {
          "name": "",
          "type": "string"
        }
      ],
      "payable": false,
      "stateMutability": "view",
      "type": "function"
    },
    {
      "constant": false,
      "inputs": [
        {
          "name": "origin",
          "type": "uint256"
        },
        {
          "name": "destination",
          "type": "uint256"
        },
        {
          "name": "mode",
          "type": "uint8"
        },
        {
          "name": "reversible",
          "type": "bool"
        },
        {
          "name": "flowOwner",
          "type": "address"
        }
      ],
      "name": "addFlow",
      "outputs": [],
      "payable": false,
      "stateMutability": "nonpayable",
      "type": "function"
    },
    {
      "inputs": [],
      "payable": false,
      "stateMutability": "nonpayable",
      "type": "constructor"
    }
  ],
  "bytecode": "0x6060604052341561000f57600080fd5b336000806101000a81548173ffffffffffffffffffffffffffffffffffffffff021916908373ffffffffffffffffffffffffffffffffffffffff16021790555061080a8061005e6000396000f300606060405260043610610057576000357c0100000000000000000000000000000000000000000000000000000000900463ffffffff16806345bdc5e61461005c57806392f859db146100cd5780639d08f2b814610169575b600080fd5b341561006757600080fd5b6100b7600480803590602001908201803590602001908080601f016020809104026020016040519081016040528093929190818152602001838380828437820191505050505050919050506101cb565b6040518082815260200191505060405180910390f35b34156100d857600080fd5b6100ee6004808035906020019091905050610275565b6040518080602001828103825283818151815260200191508051906020019080838360005b8381101561012e578082015181840152602081019050610113565b50505050905090810190601f16801561015b5780820380516001836020036101000a031916815260200191505b509250505060405180910390f35b341561017457600080fd5b6101c9600480803590602001909190803590602001909190803560ff16906020019091908035151590602001909190803573ffffffffffffffffffffffffffffffffffffffff16906020019091905050610331565b005b60008060009054906101000a900473ffffffffffffffffffffffffffffffffffffffff168073ffffffffffffffffffffffffffffffffffffffff163373ffffffffffffffffffffffffffffffffffffffff1614151561022957600080fd5b6001805480600101828161023d9190610496565b9160005260206000209001600085909190915090805190602001906102639291906104c2565b50506001808054905003915050919050565b60018181548110151561028457fe5b90600052602060002090016000915090508054600181600116156101000203166002900480601f0160208091040260200160405190810160405280929190818152602001828054600181600116156101000203166002900480156103295780601f106102fe57610100808354040283529160200191610329565b820191906000526020600020905b81548152906001019060200180831161030c57829003601f168201915b505050505081565b60008060009054906101000a900473ffffffffffffffffffffffffffffffffffffffff168073ffffffffffffffffffffffffffffffffffffffff163373ffffffffffffffffffffffffffffffffffffffff1614151561038f57600080fd5b84848461039a610542565b808460038111156103a757fe5b60ff168152602001831515151581526020018273ffffffffffffffffffffffffffffffffffffffff1673ffffffffffffffffffffffffffffffffffffffff1681526020019350505050604051809103906000f080151561040657600080fd5b9150600260008881526020019081526020016000206000878152602001908152602001600020805480600101828161043e9190610552565b9160005260206000209001600084909190916101000a81548173ffffffffffffffffffffffffffffffffffffffff021916908373ffffffffffffffffffffffffffffffffffffffff1602179055505050505050505050565b8154818355818115116104bd578183600052602060002091820191016104bc919061057e565b5b505050565b828054600181600116156101000203166002900490600052602060002090601f016020900481019282601f1061050357805160ff1916838001178555610531565b82800160010185558215610531579182015b82811115610530578251825591602001919060010190610515565b5b50905061053e91906105aa565b5090565b6040516101c78061061883390190565b8154818355818115116105795781836000526020600020918201910161057891906105aa565b5b505050565b6105a791905b808211156105a3576000818161059a91906105cf565b50600101610584565b5090565b90565b6105cc91905b808211156105c85760008160009055506001016105b0565b5090565b90565b50805460018160011615610100020316600290046000825580601f106105f55750610614565b601f01602090049060005260206000209081019061061391906105aa565b5b5056006060604052341561000f57600080fd5b6040516060806101c783398101604052808051906020019091908051906020019091908051906020019091905050826000806101000a81548160ff0219169083600381111561005a57fe5b021790555081600060016101000a81548160ff02191690831515021790555080600060026101000a81548173ffffffffffffffffffffffffffffffffffffffff021916908373ffffffffffffffffffffffffffffffffffffffff16021790555050505060fc806100cb6000396000f3006060604052600436106049576000357c0100000000000000000000000000000000000000000000000000000000900463ffffffff1680630e75675814604e578063295a5212146078575b600080fd5b3415605857600080fd5b605e60ab565b604051808215151515815260200191505060405180910390f35b3415608257600080fd5b608860be565b60405180826003811115609757fe5b60ff16815260200191505060405180910390f35b600060019054906101000a900460ff1681565b6000809054906101000a900460ff16815600a165627a7a723058207e1686740dad8deeb0827b1675b8ca9d0d06371b7bda33772899164e59e296c50029a165627a7a723058206ce5c95b06e0167e775f8b02533fce93b1d7fffdee6f66c1b7e75fb5bcfd575d0029",
  "source": "pragma solidity ^0.4.17;\n\nimport \"./Flow.sol\";\n\n/**\n * The Genesis contract is responsible for creating and maintaining an index of \n * Flow contracts\n */\ncontract Genesis {\n  address private owner;\n  string[] public stations;\n  mapping (uint => mapping (uint => address[])) private flows;\n  \n  function Genesis() public {\n    owner = msg.sender;\n  }\n  \n  modifier onlyBy(address _account) {\n    require(msg.sender == _account);\n    _;\n  }  \n  \n  function addStation(string memory stationName) public onlyBy(owner) returns (uint) {\n    stations.push(stationName);\n    \n    return stations.length - 1;\n  }\n  \n  function addFlow(\n    uint origin, \n    uint destination, \n    Flow.TransportMode mode,\n    bool reversible,\n    address flowOwner\n  ) public onlyBy (owner) {\n    address flow = new Flow(mode, reversible, flowOwner);\n    \n    flows[origin][destination].push(flow);\n  }\n}\n",
  "sourcePath": "/home/linus/Work/planarnetwork/ethereum-demo/contracts/Genesis.sol",
  "compiler": {
    "name": "solc",
    "version": "0.4.18+commit.9cf6e910.Emscripten.clang"
  },
  "schemaVersion": "1.0.1",
  "updatedAt": "2018-01-23T14:59:42.390Z"
}